:040000008031122811
:100008007E14803120007F082100EB008331092312
:1000180021006B082000FF007E10090080311428A1
:100028002100E001E101E201E301E401E501220030
:10003800EF01A030840001308500493088312F203D
:1000480080312030840002308500123088312F2022
:100058008031A030840002308500403088312F2064
:1000680080312030840003308500403088312F20D3
:100078008031A030840003308500403088312F2043
:100088007E10200080314828003088314A20803195
:100098008431BF2480318731E42780318931F921C7
:1000A800803100302300E2000030E1000430E0003D
:1000B800B030DF000E118E1121008D130E118E113C
:1000C8000E128E1220000E118E110E128E128D1726
:1000D80021006208031DDC2940302300E90069087B
:1000E8002200EB0020308B31BB2380312300EA0053
:1000F8006A08EB006B080319DC2926002008230096
:10010800E9006908EC00A52920000E118D133D3087
:100118002300EA00E130E9003F30890B9128E90B20
:100128009128EA0B91280032A22920000E158D1380
:1001380015302300EA004630E9008C30890BA228EC
:10014800E90BA228EA0BA228000020008D17153021
:100158002300EA004630E9008C30890BB128E90B0E
:10016800B128EA0BB128000020008D1315302300B8
:10017800EA004630E9008C30890BC028E90BC0281A
:10018800EA0BC0280000A22920008E118D133D30F3
:100198002300EA00E130E9003F30890BD128E90B60
:1001A800D128EA0BD1280032A22920008E158D1300
:1001B80015302300EA004630E9008C30890BE2282C
:1001C800E90BE228EA0BE228000020008D17153021
:1001D8002300EA004630E9008C30890BF128E90B4E
:1001E800F128EA0BF128000020008D1315302300B8
:1001F800EA004630E9008C30890B0029E90B002918
:10020800EA0B00290000A22920000E128D133D30B0
:100218002300EA00E130E9003F30890B1129E90B9E
:100228001129EA0B11290032A22920000E168D137C
:1002380015302300EA004630E9008C30890B22296A
:10024800E90B2229EA0B2229000020008D1715301E
:100258002300EA004630E9008C30890B3129E90B8C
:100268003129EA0B3129000020008D1315302300B5
:10027800EA004630E9008C30890B4029E90B402917
:10028800EA0B40290000A22920008D131530230015
:10029800EA004630E9008C30890B5029E90B5029D7
:1002A800EA0B5029000020008D1715302300EA00C2
:1002B8004630E9008C30890B5F29E90B5F29EA0B8E
:1002C8005F29000020008D1315302300EA00463016
:1002D800E9008C30890B6E29E90B6E29EA0B6E292F
:1002E800000020008D1315302300EA004630E90095
:1002F8008C30890B7D29E90B7D29EA0B7D290000CB
:1003080020008D1715302300EA004630E9008C30B4
:10031800890B8C29E90B8C29EA0B8C290000200019
:100328008D1315302300EA004630E9008C30890B24
:100338009B29E90B9B29EA0B9B29000020008D17BC
:10034800BA2923006C080A3A03198828013A0319C4
:1003580099281F3A0319C828013A0319D9280B3AD2
:1003680003190829013A03191929482900302000DE
:100378000E1901302500A000003020008E19013030
:100388002500A100003020000E1A01302500A2002F
:1003980023006C08E90069082500A3000430230045
:1003A800E90069082200E000A030883191208031FE
:1003B8008331F02380316C2820005203031DF82973
:1003C80050081F39003A031DF8292300B5170330D8
:1003D80020005106031DF6290130E60066082300B7
:1003E800DC00F8292300DC0120005208031D080066
:1003F80050081F39023A031D080054080F39003A03
:100408000319080054080F39E60003306602031880
:100418000800203022006F06031D08002300B517CE
:100428002000D41B262A54080F390907AD3E860040
:1004380001308700403FEB00413FEC0054080F3982
:10044800C03E342A54080F390907A73E86000130F8
:100458008700403FEB00413FEC0054080F39C33E92
:100468008600013087000108E6006608EA006A187D
:10047800472AFB30E600FF30E7006B086605EB0013
:100488006C0867054C2A04306B04EB0000306C04E0
:10049800EC00D41B5B2A54080F390907AD3E8600CF
:1004A800013087006B08C03F6C08C13F662A5408BA
:1004B8000F390907A73E8600013087006B08C03F47
:1004C8006C08C13F03305106031D882A6B0886005B
:1004D8006C088700811F7D2AD41B762A54080F399F
:1004E800C03E792A54080F39C33E86000130870080
:1004F80081146B0886006C08870001156B0886005C
:100508006C0887008117080004306B06EB00003088
:100518006C06EC006B0886006C088700811FB12A06
:100528007F30E6006B0886006C0887006608810546
:100538006B0886006C08870001170030E100053061
:10054800E0006C08E3006B08E2000230E4000030D1
:10055800E5008931C1218131B72A20006B08860066
:100568006C0887000117043020006B06EB00003090
:100578006C06EC00EA18C62A6B0886006C0887002F
:10058800811FEB2AD41BCC2A54080F39C03ECF2A2E
:1005980054080F39C33E86000130870081103B3074
:1005A800E6006B0886006C08870066088105003045
:1005B800E1000530E0006C08E3006B08E20002305F
:1005C800E4000030E5008931C1218131F42A3B3053
:1005D8002000E6006B0886006C0887006608810525
:1005E800200054080F39983EE600E7010E30E73D39
:1005F8006608E8006708E900FE30E600680886003B
:100608006908870066088105080022006F03031D3A
:10061800192B3D008E1A192B900112141216023054
:100628002100E90069082200EF003D001019121DA1
:10063800262BFB302100E90069083D009005883130
:10064800EA2083313D008E1C2C2B2000121108005B
:100658001018121C3F2B8531762583312100121585
:100668000430E90069082200EF00FE302100E900AB
:1006780069083D009005101A121E452B8831AB20E1
:1006880083313D00101F6F2B121F5A2B733020002F
:10069800E0000030E1000030E2000030E30001300B
:1006A800E4000030E5008931C1218331BF302100E9
:1006B800E90069083D0090058831792083312300DD
:1006C80058080319692B0130D8025808031D6F2BED
:1006D8008E31082683313D00901A921E762B89317F
:1006E8002D2183313D009018921C8C2BFF30200067
:1006F800E0007F30E1000030E2000030E30001302C
:10070800E4000030E5008931C12183313D009301C7
:10071800043022006F020318942B200012110800E5
:100728003D00921DED2B2000EF0104306F020318ED
:10073800ED2B3D00901DED2B0F082100E900690805
:10074800E500650CE900E90C690C0F39EA006A0854
:100758002300DA00F7302100E90069083D00900520
:1007680021006519BB2B23005A08C03EBE2B23006D
:100778005A08C33E8600013087000108013921006C
:10078800E9000130E90601086906FE3969068100B9
:1007980023005A08031DD42B8B3164238331E32BA8
:1007A80072302000E0000030E100E530E200003067
:1007B800E3000030E400E5008931C12183310130D4
:1007C8002100E90069082000EF0704306F02031CCC
:1007D8009D2B200012110800210012112300460849
:1007E80047040319002C4608860047088700811F24
:1007F800002C21001215080003302100620603199D
:10080800E2016208031D0A2C121508000230620674
:10081800031D292C2200E001E00A0030E10000302D
:10082800E200E30102308F317C2783312200610826
:100838002300C700220060082300C60003302200FE
:10084800EB006B082100E200BC2C6203031DBC2CEA
:10085800413023005002031C332C4030352C230038
:1008680050082200EB006B08ED006D03FF3A2300EF
:1008780050072200EB006B082300D000A0302200B4
:10088800EB006B082300CA0022006D08EB006B0820
:10089800EC0023004F0803196F2C912C23004C08FF
:1008A80086000230870001082200EB0023004A0876
:1008B8008600870122006B0881000130EB006B087D
:1008C8002300CA0701302200EB006B082300CC0785
:1008D80001302200EC0222006C080319952C522CDE
:1008E80023004C0886000230870001082200EB0034
:1008F80023004A088600870122006B088100013026
:10090800EB006B082300CA0701302200EB006B08DC
:100918002300CC0701302200EC0222006C08031DE2
:10092800742C23005008031DA62C403022006D06AD
:10093800031DA02C0230A22C03302200EB006B0810
:100948002100E2002200E001E00AA030E1000030CE
:10095800E2006D08EB006B08E30002308F317C2762
:10096800220061082300C700220060082300C60097
:10097800210012150800210012113D009301900179
:1009880098010E302200E2009930E100E3010230C4
:1009980063020318E02C6108860062088700810161
:1009A8000130E1070030E23D0130E0006008E30774
:1009B80002306302031CCF2C16303D0091009F309B
:1009C80097007B3092002200E4010C306402031887
:1009D800062D6408E0000130E035FF3E031DF02CD1
:1009E8006035203E860087010030C03F0030C13F9F
:1009F800C23FC33F0130E0006008E4070C306402E6
:100A0800031CED2C3D000E1796010E120E13F73045
:100A18002200E00060083D0090052300B501A20116
:100A2800A301A4013D0090190B2D01302200E00024
:100A380060082300D60001302200E000600823008F
:100A4800D500D401D301DB012200E40103306402A4
:100A58000318522D6435A73E860001308700003008
:100A6800C03FC13F6435AD3E86000130870000308D
:100A7800C03FC13F6408C33E860001308700810142
:100A88006408C03E86000130870081010130E00023
:100A98006008E40703306402031C2E2D283023006D
:100AA800A7000030A80016303D0098000030200054
:100AB800A3005030A2000830A10004302200E0005A
:100AC80060082000A000A0172300E8010030BF0044
:100AD8000030BE000030BD000030BC00D201220052
:100AE800EF010800210012113D00930190019801C7
:100AF8000E30F2009930F100F3010230730203184E
:100B0800962D710886007208870081010130F1076F
:100B18000030F23D0130F0007008F3070230730234
:100B2800031C852D16303D0091009F3097007B30C7
:100B38009200F4010C3074020318BB2D7408F00005
:100B48000130F035FF3E031DA52D7035203E86008F
:100B580087010030C03F0030C13FC23FC33F013072
:100B6800F0007008F4070C307402031CA22D3D003D
:100B78000E1796010E120E13F730F000700890054C
:100B88002300B501A201A301A4013D009019C02DC5
:100B98000130F00070082300D6000130F000700822
:100BA800D500D401D301DB01F4010330740203182A
:100BB800012E7435A73E8600013087000030C03F03
:100BC800C13F7435AD3E8600013087000030C03F1C
:100BD800C13F7408C33E8600013087008101740854
:100BE800C03E86000130870081010130F0007008A6
:100BF800F40703307402031CDD2D28302300A700FE
:100C08000030A80016303D00980000302000A300F6
:100C18005030A2000830A1000430F0007008A00095
:100C2800A0172300E8010030BF000030BE000030EC
:100C3800BD000030BC00D2012200EF0108002100F5
:100C4800640886008701413FF5007508F200F3014A
:100C5800730823002402031D332E7208230203188D
:100C6800392E2308F2007208F5007508F200F30126
:100C78007208A3027308A43BF401750874020318F0
:100C88005A2E7408583E860087010108F200200891
:100C9800860001308700720881000130F200720876
:100CA800A0070130F2007208F407412E230824043B
:100CB8000319952E21006008013EF2000030613DC5
:100CC800F3007208860073088700083081005830E6
:100CD800F2000030F30060088600610887004231A6
:100CE8007208C03F7308C13F640886008701011B72
:100CF800892E6008860061088700483081006008F6
:100D0800860061088700811708006008860061086E
:100D18008700083081006008860061088700811715
:100D2800080021006008013EF2000030613DF30038
:100D38007208860073088700083081005030F2007E
:100D48000030F300600886006108870042317208AD
:100D5800C03F7308C13F60088600610887000430FF
:100D68008100600886006108870081172300250834
:100D78002608A2135708031D08008E31082608000C
:100D88003D000E122300B51B0C2FA21FDA2E0230D5
:100D9800F50075082100E30023005308031DD62E33
:100DA8008C3116242300D501D601080021006008E3
:100DB800013EF5000030613DF600750886007608B2
:100DC8008700083081005030F5000030F6006008D8
:100DD80086006108870042317508C03F7608C13F28
:100DE80060088600610887000C3081006008860072
:100DF80061088700811723002708860028088700D4
:100E08000430810027088600280887008117080019
:100E18002000D01F242F0130F50075082100E300C1
:100E280023005408031D1B2F8C3116248631230000
:100E3800D501D6015708031D08008E310826080081
:100E48000230F50075082100E3006008013EF50056
:100E58000030613DF6007508860076088700083086
:100E680081005030F5000030F60060088600610807
:100E7800870042317508C03F7608C13F6008860088
:100E880061088700043081006008860061088700D7
:100E980081172300D501D6015708031D08008E319C
:100EA800082608002300B5170E302000E800993006
:100EB800E700E901023069020318732F670886000A
:100EC8006808870081010130E7070030E83D0130FC
:100ED800E6006608E90702306902031C622F203029
:100EE800F0000030F1000030F200F3003030F40080
:100EF8000030F5008831612087313D000E17200051
:100F0800EA0103306A0203189D2F6A08C33E86006F
:100F18000130870081016A08C03E860001308700E1
:100F280081010130E6006608EA0703306A02031C03
:100F3800892FE630F0000130F1000030F200F300B4
:100F48000230F4000030F5008831612087313D001F
:100F58000E1328302300A7000030A80020302000FE
:100F6800E60066082100E4006408E000FF39031D7C
:100F78000030E10020005208E60066082300E8007F
:100F88006808031DCE2F10302000E60066082200F6
:100F9800EF00080000302000E1000130E000E830F8
:100FA800E2000130E3000130E4000030E50089315F
:100FB800C12120302000E60066082200EF0008006A
:100FC80022006F08031D08003D008E0192011630B3
:100FD80091009F3097007B309200210012150B176B
:100FE8008B173D008E19FA2F8E15F52F0130220030
:100FF800E0006008EF0008008C31F62C8C31F92CE9
:101008008D31322D8C31F92C8D31322D8C31D92CFA
:101018008C31E22C8D31192D8C31E82C8C31E52C5A
:0C1028008C31FC2C8D310C2D8D31322DC3
:10105E00640080010131890B30280034F0003E28F5
:10106E00FC3021009900903027009B00080070088A
:10107E00003A03193728013A03194928033A03198C
:10108E004928492808002200E0005428FC3021009D
:10109E009900903027009B00080022006008003A5B
:1010AE0003194D28013A03196028033A03196028E1
:1010BE00602808007108F7007008F6000130F4028D
:1010CE000030F53B740A0319750A031908007608F7
:1010DE00860077088700720881000130F60700301D
:1010EE00F73D652801302300BC070030BD3D0030C0
:1010FE00BE3D0030BF3D5B08031D08000130F0000F
:10110E007008D2075208031D0800FF30F000700867
:10111E00D20008002200E200210012116208031D15
:10112E00A92822006208E10061082300CC002200F9
:10113E006008E10061082300D000CF01CF0A210032
:10114E00E201E20A121508003D001215EF302000F0
:10115E00E60066083D0090058E1401302000E60082
:10116E0066082300DB00D20175302000E00000305D
:10117E00E1000030E2000030E3000030E400E50062
:10118E008931C1210800FC00771DD228F0017C08AE
:10119E008A3137228831F71CD928F001F00A7C08F1
:1011AE008A3137227C08983EF800F9010E30F93D5D
:1011BE007808FA007908FB007A0886007B08870019
:1011CE007708810008002300DB0174302000E00066
:1011DE000030E1000030E2000030E3000030E400B7
:1011EE00E5008931C12188313D008E101211101D8C
:1011FE000729FB302000E60066083D009005FE281A
:10120E002300D20108002200EC00671D1329E00123
:10121E006C088A31792289312200E71C1B29E001F2
:10122E00E00A6C088A31792222006C08983EE800A8
:10123E00E9010E30E93D6808EA006908EB006A082A
:10124E0086006B0887006708810008003D00181CA7
:10125E004F29210064088600870180300106031D96
:10126E004D292300270886002808870084300106B0
:10127E00031D4D290C30F000210064088600870103
:10128E007008810064088600870181173D001810E0
:10129E00DF30F00070089005080000302300E200F7
:1012AE000030E1004B30E0000030DF00E301E401EC
:1012BE000830FD007D08E500D1011A30FD007D08E3
:1012CE00F70001308831CA2089311E30FD007D08BB
:1012DE00F70002308831CA208931F0012030F10048
:1012EE000130F2004030FD007D08F30002308E31F7
:1012FE00F92671082300C9007008C800C601C7018D
:10130E002100E2010800023021006306031D92292C
:10131E008631232608002100E30123005908031D0E
:10132E00BE2921006008013EF6000030613DF70045
:10133E007608860077088700083081005030F60066
:10134E000030F70060088600610887004231760899
:10135E00C03F7708C13F60088600610887000C30E7
:10136E00810060088600610887008117080023004D
:10137E00D9010800D029013088313520080002300B
:10138E008831352008008931542108008C317224AF
:10139E00080020006108003A0319D9297F3A031981
:1013AE00F329F8296008013A0319CA29033A0319E7
:1013BE00F829013A0319CD29063A0319F829773A83
:1013CE000319F829013A0319F829073A0319C6290E
:1013DE00013A0319C229F8296008FF3A0319F829BE
:1013EE00F829080000302300E2000030E1004B3005
:1013FE00E0000030DF00E301E40108302200ED00E0
:10140E006D082300E500D1011A302200ED006D08B1
:10141E00E700013089310A2189311E302200ED00AA
:10142E006D08E700023089310A2189312200E0017E
:10143E002030E1000130E2004030ED006D08E300A5
:10144E0002308F317C27220061082300C900220060
:10145E0060082300C800C601C7012100E201080090
:10146E00F5002030F1007108F6007008F10001302F
:10147E00F135890B3F2A7508F2000130F235FF3E37
:10148E00031D452A72357107F3000130F335FF3E17
:10149E00031D4D2A7335F4007408F607760886008E
:1014AE00870181137008031D662A7535AD3E8600CF
:1014BE00013087007608C03F0030C13F6F2A753576
:1014CE00A73E8600013087007608C03F0030C13F3E
:1014DE0076088600870101137608043E8600870190
:1014EE00011708002200E5002030E1006108E60047
:1014FE006008E1000130E135890B822A6508E200BF
:10150E000130E235FF3E031D882A62356107E30094
:10151E000130E335FF3E031D902A6335E400640875
:10152E00E60766088600870181136008031DA92A55
:10153E006535AD3E8600013087006608C03F00303D
:10154E00C13FB22A6535A73E860001308700660886
:10155E00C03F0030C13F6608860087010113660850
:10156E00043E86008701011708002300DE01D70123
:10157E00D401D301D9012100E3017F302000EE0018
:10158E002300270886002808870020006E088105A2
:10159E00043023002706A70000302806A8007F305D
:1015AE002000EE0023002708860028088700200070
:1015BE006E088105043023002706A7000030280698
:1015CE00A8007F302000EE00210060088600610830
:1015DE00870020006E0881052300B501B601B70112
:1015EE00A201A301A4018C31D1248A310030200044
:1015FE00E1000330E0000030E2000030E300003094
:10160E00E400E5008931C1218A318631C426080003
:10161E002000D801D9014B2B2300B51723005C0302
:10162E00031D572B2000D814572B2300B517572B0B
:10163E002300B5172000D41B2F2B54080F39090790
:10164E00AD3E860001308700403FF100413F392B0F
:10165E0054080F390907A73E860001308700403F26
:10166E00F100413FF2007108860072088700811F69
:10167E00572B7108860072088700011D572B013009
:10168E00F0007008D800572B50081F39003A031984
:10169E00132B013A03191C2B033A03191F2B572B3B
:1016AE002300B51F08005830B3000030B4003514C5
:1016BE000230F0007008B60008002D302100E60060
:1016CE0066082300D80021006508FD39031DB02BE4
:1016DE0065363F39E6000130E635FF3E031D732BBC
:1016EE006635203EE7006708E4006408E000FF3935
:1016FE00031D0030E10004306006E000003061069A
:10170E00E100640886008701010C890C0F390D3A3F
:10171E00031DAD2B50308600870121006408023E68
:10172E0084008501003FE600013FE7006608840063
:10173E00670885000830E80068080319AA2B120014
:10174E001E00E80BA62B8A31BC22080089318A21A3
:10175E000800FD3021006505E60004306606031D15
:10176E0008008D319B2508002200EE002300D101D8
:10177E00480849040319C92B480886004908870000
:10178E00811B142C4808860049088700413122002D
:10179E006B0801020318DE2B230048088600490857
:1017AE008700413101082200EC006C08EB00230099
:1017BE00D10122006B08230051020318FF2B5108A0
:1017CE00203E86000130870001082200EC00230035
:1017DE00510822006E07ED006D0886000330870069
:1017EE006C0881000130EC006C082300D107E02B5F
:1017FE002200E0012030E1000130E2004030EC0038
:10180E006C08E30002308F317C2722006108230030
:10181E00C900220060082300C800510808002300F8
:10182E00D401D301023021006306031D432C60084E
:10183E00013EF3000030613DF40073088600740829
:10184E008700083081005830F3000030F400600843
:10185E0086006108870042317308C03F7408C13F9B
:10186E0060088600610887004830810060088600A5
:10187E0061088700811708002300370820005702EF
:10188E00031D4D2C23003608200056020318562C3B
:10189E0057082300B700200056082300B6008D31EC
:1018AE0033255830F3000030F4002300270886005B
:1018BE002808870042317308C03F7408C13F2708CB
:1018CE0086002808870048308100270886002808EF
:1018DE00870081170800200050081F39013A031DA8
:1018EE000800500E890C0339013A031D08005408F4
:1018FE000319BE2C5403031D0800BE2C2A302300EE
:10190E00B3000230B4000030B7000830B600351412
:10191E00B51708002A302300B3000230B400B51703
:10192E000800200057082300A400200056082300BA
:10193E00A300DF30F0007008A000A501A601A217D9
:10194E000800DF302300B3000130B4000030B700D0
:10195E000730B600C130F0007008B5000800200056
:10196E005208F00070082300CE00B51708002000C2
:10197E005108003A0319852C013A0319912C213A8A
:10198E000319982C013A0319A82C033A0319B62C03
:10199E00D02C08002000500E890C0339003A031D8C
:1019AE000800272D2300B51708302000ED006D0824
:1019BE002200EF0008008E317A2608008731562764
:1019CE000800E8302300B3000130B40035140130B4
:1019DE002000ED006D082300B600B51708008B310E
:1019EE000F2308008131E021080020005408E63E54
:1019FE002300B3000130B400351401302000ED0097
:101A0E006D082300B600B51708002300B517200097
:101A1E005208ED005408E63E8600013087006D083E
:101A2E00810008000030E1000230E0000030E200EA
:101A3E000030E3000030E400E5008931C1210800E8
:101A4E002000510884000D3004020318080088316C
:101A5E000435003E820008000830F0007008F200E5
:101A6E0000302300370208300319360203184F2DB9
:101A7E003608F0007008F2005E08031D482D013094
:101A8E004C2D5E03031D4F2D0230F0007008DE005A
:101A9E007208F000F1017008B6027108B73B270812
:101AAE00013EF0000030283DF100700886007108FC
:101ABE008700720881005830F0007008DD00351C78
:101ACE007E2D972D33088400340885000008F00021
:101ADE005D0886008701700881000130B307003071
:101AEE00B43D0130F0007008DD070130F2027208DB
:101AFE0003190800692D3308840034088500000896
:101B0E00F0005D0886008701700881000130B30780
:101B1E000030B43D0130F0007008DD070130F202F4
:101B2E00720803190800822D230027088600280852
:101B3E0087000030011B0130F50004302706A70096
:101B4E0000302806A800083022006F06031DBE2DA7
:101B5E00200052087F393D00960016080319B92D52
:101B6E001030BA2D0430F30073082200EF0021006C
:101B7E006303031DFF2D5830F3000030F4002300E3
:101B8E00270886002808870042317308C03F740872
:101B9E00C13F8D3133258D31023023005E06031D8A
:101BAE00E42D2708860028088700043081002708C6
:101BBE00860028088700811708007508031DF32D7D
:101BCE0027088600280887004830810027088600ED
:101BDE002808870081170800270886002808870034
:101BEE000830810027088600280887008117080022
:101BFE002300A21F052E25082608A2132100E301AB
:101C0E00080023005608031D08000130F00070087C
:101C1E00D6005508031D08000130F0007008D500ED
:101C2E00023021006306031D2F2E23002708860095
:101C3E00280887004131810127088600280887007F
:101C4E004830810027088600280887008117080081
:101C5E0021006303031D08002300D9010830F000A2
:101C6E002100640A86008701700881005030F00060
:101C7E000030F1006408023E860087017008C03F04
:101C8E007108C13F0430F0006408860087017008B7
:101C9E00810064088600870181170130F00070080A
:101CAE002300D90021006008013EF0000030613DA4
:101CBE00F1007008860071088700083081005030EE
:101CCE00F0000030F10060088600610887004231A4
:101CDE007008C03F7108C13F600886006108870028
:101CEE00803081000800803020005006031D08005F
:101CFE00C030F00070082300B500EC2EAB3023008E
:101D0E00B3009030B4000030B7001230B6000800B7
:101D1E0020005208031DC22E5208F000F101F035CA
:101D2E00F10DC730700784009030713D8500003F83
:101D3E002300B300013FB4003408F1003308F00073
:101D4E0002307007840071080318710A85000008BC
:101D5E00F2007208B6003408F1003308F0000330C8
:101D6E007007840071080318710A85000008F200DC
:101D7E007208B70008002300B501080003302000E8
:101D8E0052020318E62E5208F000F101F035F10D63
:101D9E00BD30700784009030713D8500003F2300F8
:101DAE00B300013FB40033088400340885000008F6
:101DBE00F000F1017008B6007108B70008002300AA
:101DCE00B50108002300B501080020005308013AB0
:101DDE000319852E033A03198F2E013A0319C52EC6
:101DEE00E92E0800F80070080319062F7835A73E73
:101DFE00860001308700403FF900413F0E2F7835B5
:101E0E00AD3E860001308700403FF900413FFA00A9
:101E1E0079087A04031D162FF001F1010800FF3036
:101E2E007105F4007F307205F500790886007A0896
:101E3E00870042317408C03F7508C13F7908013EE2
:101E4E00F40000307A3DF5007408860075088700AE
:101E5E00730881004030F400790886007A08870004
:101E6E0074088105790886007A088700811579083B
:101E7E0086007A0887008117700803195F2F78355E
:101E8E00A73E860001308700403FF400413FF50039
:101E9E0004307406F60000307506F7007835A73E5C
:101EAE008600013087007608C03F7708C13F772F44
:101EBE007835AD3E860001308700403FF400413F4B
:101ECE00F50004307406F60000307506F70078351C
:101EDE00AD3E8600013087007608C03F7708C13FCF
:101EEE007A08F1007908F00008002200E800600886
:101EFE0003198A2F6835A73E860001308700403FC0
:101F0E00E900413F922F6835AD3E860001308700D3
:101F1E00403FE900413FEA0069086A04031D9A2F19
:101F2E00E001E1010800FF306105E4007F30620549
:101F3E00E500690886006A08870042316408C03FE0
:101F4E006508C13F6908013EE40000306A3DE500C6
:101F5E006408860065088700630881004030E4004D
:101F6E00690886006A08870064088105690886008A
:101F7E006A0887008115690886006A08870081173C
:101F8E0060080319E32F6835A73E860001308700ED
:101F9E00403FE400413FE50004306406E6000030B7
:101FAE006506E7006835A73E8600013087006608A3
:101FBE00C03F6708C13FFB2F6835AD3E860001303C
:101FCE008700403FE400413FE50004306406E60030
:101FDE0000306506E7006835AD3E860001308700AB
:101FEE006608C03F6708C13F6A08E1006908E00063
:101FFE00080009340234433400340234013400340E
:10200E00C034323409340434003400340134023420
:10201E0002340134003405342434003410340134D5
:10202E0004342434023402340534243406340034A7
:10203E0001340534243401340034013407340534BA
:10204E008134033408340034023409340434013446
:10205E00003402340A3400340034003407340534BA
:10206E0002340234403400340034073405348234F0
:10207E0002344034003400343434033443340034F6
:10208E0044340034433400342034003452340034A9
:10209E00533400342D3400343234003433340034AD
:1020AE003234003420340034453400346D3400347E
:1020BE00753400346C3400346134003474340034BC
:1020CE00693400346F3400346E34003420340034FC
:1020DE0044340034653400346D3400346F340034CD
:1020EE00343403344D3400346934003463340034F2
:1020FE00723400346F340034633400346834003486
:10210E0069340034703400342034003454340034D4
:10211E006534003463340034683400346E34003473
:10212E006F3400346C3400346F3400346734003450
:10213E007934003420340034493400346E340034A1
:10214E00633400342E34003412340134003402343B
:10215E000234003400340834D83404340A340034E1
:10216E00003401340134023400340134C334903469
:10217E0077349034433490340434033409340434C3
:04218E000034903455
:020000040001F9
:04000E00E4C1CFFF7B
:00000001FF
