:040000008031122811
:100008007E14803120007F082100EB008331182303
:1000180021006B082000FF007E10090080311428A1
:100028002100E001E101E201E301E401E501A03082
:100038008400013085004A3088310C20803120301E
:10004800840002308500123088310C208031A030C5
:10005800840002308500403088310C208031203007
:10006800840003308500403088310C208031A03076
:10007800840003308500403088310C207E10200039
:1000880080314628003097316227803185319525A7
:1000980080319731C4278031893140218031003047
:1000A8002300E3000030E2000430E100B030E0005B
:1000B8000E118E1121008D130E118E110E128E123B
:1000C80020000E118E110E128E128D1723005A0861
:1000D800031DEB294030EA006A082200EB002030BB
:1000E8008A31FE2280312300EB006B08ED006D0899
:1000F8000319EB29260020082300EA006A08EE000D
:10010800B42920000E118D133D302300EC00E1309E
:10011800EB007A30EA00EA0B8F28EB0B8F28EC0B08
:100128008F280032B12920000E158D1315302300B9
:10013800EC004630EB009F30EA00EA0BA128EB0BFD
:10014800A128EC0BA128000020008D1715302300F2
:10015800EC004630EB009F30EA00EA0BB128EB0BCD
:10016800B128EC0BB128000020008D1315302300B6
:10017800EC004630EB009F30EA00EA0BC128EB0B9D
:10018800C128EC0BC1280000B12920008E118D1365
:100198003D302300EC00E130EB007A30EA00EA0B56
:1001A800D328EB0BD328EC0BD3280032B12920003D
:1001B8008E158D1315302300EC004630EB009F3070
:1001C800EA00EA0BE528EB0BE528EC0BE528000034
:1001D80020008D1715302300EC004630EB009F30CF
:1001E800EA00EA0BF528EB0BF528EC0BF5280000E4
:1001F80020008D1315302300EC004630EB009F30B3
:10020800EA00EA0B0529EB0B0529EC0B0529000090
:10021800B12920000E128D133D302300EC00E1308F
:10022800EB007A30EA00EA0B1729EB0B1729EC0BE5
:1002380017290032B12920000E168D13153023001E
:10024800EC004630EB009F30EA00EA0B2929EB0B63
:100258002929EC0B2929000020008D1715302300CF
:10026800EC004630EB009F30EA00EA0B3929EB0B33
:100278003929EC0B3929000020008D131530230093
:10028800EC004630EB009F30EA00EA0B4929EB0B03
:100298004929EC0B49290000B12920008D1315309C
:1002A8002300EC004630EB009F30EA00EA0B5A29A5
:1002B800EB0B5A29EC0B5A29000020008D1715303A
:1002C8002300EC004630EB009F30EA00EA0B6A2975
:1002D800EB0B6A29EC0B6A29000020008D131530FE
:1002E8002300EC004630EB009F30EA00EA0B7A2945
:1002F800EB0B7A29EC0B7A29000020008D131530BE
:100308002300EC004630EB009F30EA00EA0B8A2914
:10031800EB0B8A29EC0B8A29000020008D17153079
:100328002300EC004630EB009F30EA00EA0B9A29E4
:10033800EB0B9A29EC0B9A29000020008D1315303D
:100348002300EC004630EB009F30EA00EA0BAA29B4
:10035800EB0BAA29EC0BAA29000020008D17C9294C
:1003680023006E080A3A03198528013A03199728C9
:100378001F3A0319C928013A0319DB280B3A031954
:100388000D29013A03191F295129003020000E199F
:1003980001302500A000003020008E190130250012
:1003A800A100003020000E1A01302500A200230011
:1003B8006E08EA006A082500A30004302300EA005A
:1003C8006A082200E000A0309731A92780318331E4
:1003D800FC2380316A2820005203031D072A500895
:1003E8001F39003A031D072A2300B51703302000E0
:1003F8005106031D052A0130E60066082300CF00D8
:10040800072A2300CF0120005208031D08005008C6
:100418001F39023A031D080054080F39003A03191E
:10042800080054080F39E600033066020318080074
:10043800203021006206031D08002300B5172000A4
:10044800D41B352A54080F390907AD3E8600013000
:100458008700403FEB00413FEC0054080F39C33E92
:10046800432A54080F390907A73E86000130870040
:10047800403FEB00413FEC0054080F39C03E860076
:10048800013087000108E6006608EA006A18562A63
:10049800FB30E600FF30E7006B086605EB006C08F0
:1004A80067055B2A04306B04EB0000306C04EC0039
:1004B800D41B6A2A54080F390907AD3E860001305B
:1004C80087006B08C03F6C08C13F752A54080F3974
:1004D8000907A73E8600013087006B08C03F6C08FB
:1004E800C13F03305106031D972A6B0886006C082C
:1004F8008700811F8C2AD41B852A54080F39C33ED4
:10050800882A54080F39C03E8600013087008114BC
:100518006B0886006C08870001156B0886006C085C
:1005280087008117080004306B06EB0000306C066A
:10053800EC006B0886006C088700811FC02A7F309A
:10054800E6006B0886006C088700660881056B0862
:1005580086006C08870001170030E1000530E000D4
:100568006C08E3006B08E2000230E4000030E500AC
:10057800893108218131C62A20006B0886006C0861
:1005880087000117043020006B06EB0000306C0672
:10059800EC00EA18D52A6B0886006C088700811FD2
:1005A800FA2AD41BDB2A54080F39C33EDE2A540822
:1005B8000F39C03E86000130870081103B30E600CD
:1005C8006B0886006C088700660881050030E1002A
:1005D8000530E0006C08E3006B08E2000230E4003C
:1005E8000030E500893108218131032B3B302000A0
:1005F800E6006B0886006C08870066088105200005
:1006080054080F39983EE600E7010E30E73D6608CA
:10061800E8006708E900FE30E60068088600690817
:10062800870066088105080021006203031D272B47
:100638003D008E1A272B9001121412160230210049
:10064800E9006908E2003D001019121D342BFB3047
:100658002100E90069083D00900588313220833186
:100668003D008E1C3A2B2000121108001018121C95
:100678004B2B86314C268331210012150430E900BA
:100688006908E200FE30E90069083D009005101A8B
:10069800121E512B9731E12783313D00101F7B2B10
:1006A800121F662B73302000E0000030E10000309C
:1006B800E2000030E3000130E4000030E500893159
:1006C80008218331BF302100E90069083D00900509
:1006D800973191278331230056080319752B013070
:1006E800D6025608031D7B2B8C31E82483313D004C
:1006F800901A921E822B8831752083313D00901804
:10070800921C982BFF302000E0007F30E100003081
:10071800E2000030E3000130E4000030E5008931F8
:10072800082183313D00930104302100620203183F
:10073800A02B2000121108003D00921DF92B20006B
:10074800EF0104306F020318F92B3D00901DF92BBF
:100758000F082100E9006908E500650CE900E90CCB
:10076800690C0F39EA006A082300DD00F730210020
:10077800E90069083D00900521006519C72B230091
:100788005D08C33ECA2B23005D08C03E86000130C9
:100798008700010801392100E9000130E906010854
:1007A8006906FE396906810023005D08031DE02BF8
:1007B8008A3155228331EF2B72302000E00000305F
:1007C800E100E530E2000030E3000030E400E5003D
:1007D80089310821833101302100E90069082000AE
:1007E800EF0704306F02031CA92B20001211080028
:1007F8002100121123004608470403190C2C46084F
:10080800860047088700811F0C2C2100121508005C
:10081800033023005A060319DA015A08031D172C5E
:10082800210012150800023023005A06031D372C38
:100838002200E001E00A0030E1000030E200E301BC
:1008480002308E315C268331220061082300C70004
:10085800220060082300C60003302200EB006B086A
:100868002300DA00C92C5A03031DC92C41305B024E
:10087800031C402C4030422C23005B082200EB0074
:100888006B08ED006D03FF3A23005B072200EB00C5
:100898006B082300DB00A0302200EB006B0823006C
:1008A800CA0022006D08EB006B08EC002300580812
:1008B80003197C2C9E2C23004C08860002308700EC
:1008C80001082200EB0023004A0886008701220065
:1008D8006B0881000130EB006B082300CA07013068
:1008E8002200EB006B082300CC0701302200EC0249
:1008F80022006C080319A22C5F2C23004C088600E8
:100908000230870001082200EB0023004A08860015
:10091800870122006B0881000130EB006B0823007F
:10092800CA0701302200EB006B082300CC07013016
:100938002200EC0222006C08031D812C23005B08B6
:10094800031DB32C403022006D06031DAD2C023070
:10095800AF2C03302200EB006B082300DA002200E2
:10096800E001E00AA030E1000030E2006D08EB0091
:100978006B08E30002308E315C26220061082300F8
:10098800C700220060082300C600210012150800D5
:1009980091348534173485344B348534D4348434D5
:1009A8000934023443340034023401340034C0348E
:1009B800323409340434003400340134023402344B
:1009C8000134003405342434003410340134043440
:1009D8002434023402340534243406340034013417
:1009E80005342434013400340134073405348134A7
:1009F8000334083400340234093404340134003434
:100A080002340A3400340034003407340534023424
:100A1800023440340034003407340534823402345C
:100A2800403400340034343403344D3400346934F1
:100A3800003463340034723400346F340034633467
:100A4800003468340034693400347034003420349D
:100A5800003454340034653400346334003468346A
:100A680000346E3400346F3400346C3400346F3426
:100A78000034673400347934003420340034493485
:100A880000346E340034633400342E34003434348B
:100A980003344334003444340034433400342034C1
:100AA800003452340034533400342D34003432349A
:100AB80000343334003432340034203400344534C4
:100AC80000346D340034753400346C3400346134CF
:100AD800003474340034693400346F3400346E34B4
:100AE80000342034003444340034653400346D3428
:100AF80000346F34003412340134003402340234C8
:100B0800003400340834D83404340A34003400344F
:100B18000134013402340034013404340334093418
:100B28000434210012113D009301900198010E3008
:100B38002200E2009930E100E30102306302031869
:100B4800B62D610886006208870081010130E1073F
:100B58000030E23D0130E0006008E3070230630244
:100B6800031CA52D16303D0091009F3097007B3067
:100B780092002200E4010C3064020318DC2D6408A2
:100B8800E0000130E035FF3E031DC62D6035203EF4
:100B9800860087010030C03F0030C13FC23FC33FDD
:100BA8000130E0006008E4070C306402031CC32D28
:100BB8003D000E1796010E120E13F7302200E000CA
:100BC80060083D0090052300B501A201A301A4011E
:100BD8003D009019E12D01302200E000600823005B
:100BE800D40001302200E00060082300D500D101C4
:100BF800D201D0012200E401033064020318282E38
:100C08006435A73E8600013087000030C03FC13FF1
:100C18006435AD3E8600013087000030C03FC13FDB
:100C28006408C03E86000130870081016408C33E25
:100C380086000130870081010130E0006008E40788
:100C480003306402031C042E28302300A700003060
:100C5800A80016303D00980000302000A300503056
:100C6800A2000830A10004302200E0006008200043
:100C7800A000A0172300E9010030BF000030BE002B
:100C88000030BD000030BC00D7012100E20108009F
:100C9800210012113D009301900198010E30F200DD
:100CA8009930F100F3010230730203186C2E7108B9
:100CB80086007208870081010130F1070030F23D9B
:100CC8000130F0007008F30702307302031C5B2E3A
:100CD80016303D0091009F3097007B309200F40160
:100CE8000C3074020318912E7408F0000130F035AE
:100CF800FF3E031D7B2E7035203E860087010030A5
:100D0800C03F0030C13FC23FC33F0130F000700810
:100D1800F4070C307402031C782E3D000E17960160
:100D28000E120E13F730F000700890052300B5017D
:100D3800A201A301A4013D009019962E0130F000F4
:100D480070082300D4000130F0007008D500D101EC
:100D5800D201D001F401033074020318D72E743580
:100D6800A73E8600013087000030C03FC13F743580
:100D7800AD3E8600013087000030C03FC13F740897
:100D8800C03E86000130870081017408C33E86009A
:100D98000130870081010130F0007008F40703304A
:100DA8007402031CB32E28302300A7000030A800CB
:100DB80016303D00980000302000A3005030A200FB
:100DC8000830A1000430F0007008A000A01723002C
:100DD800E9010030BF000030BE000030BD00003027
:100DE800BC00D7012100E201080021006408860048
:100DF8008701413FF5007508F200F30173082300ED
:100E08002402031D092F7208230203180F2F230839
:100E1800F2007208F5007508F200F3017208A302E7
:100E28007308A43BF401750874020318302F740882
:100E3800583E860087010108F2002008860001302C
:100E48008700720881000130F2007208A0070130A3
:100E5800F2007208F407172F2308240403196B2FD4
:100E680021006008013EF2000030613DF300720885
:100E7800860073088700083081005830F20000307F
:100E8800F300600886006108870042317208C03F9D
:100E98007308C13F640886008701011B5F2F600843
:100EA8008600610887004830810060088600610874
:100EB80087008117080060088600610887000830ED
:100EC80081006008860061088700811708002100FA
:100ED8006008013EF2000030613DF30072088600B0
:100EE80073088700083081005030F2000030F300AA
:100EF800600886006108870042317208C03F7308A5
:100F0800C13F6008860061088700043081006008DE
:100F18008600610887008117230025082608A21388
:100F28005308031D08008C31E82408002000500EE7
:100F3800890C0339003A031D0800F02F2300B51768
:100F480008302000ED006D082100E20008008D3116
:100F58005A2508008E31E0260800E9302300B30046
:100F68000130B400351401302000ED006D08230075
:100F7800B600B51708008A31A92208008131EF218F
:100F8800080020005408E73E2300B3000130B400F5
:100F9800351401302000ED006D082300B600B517A8
:100FA80008002300B51720005208ED005408E73E5A
:100FB8008600013087006D08810008000030E100DC
:100FC8000230E0000030E2000030E3000030E400CE
:100FD800E5008931082108002000510884000D30FF
:100FE80004020318080090310435003E820008000E
:10101800640080010131890B0D280034FC00771D24
:101028001A28F0017C0889317D218831F71C212894
:10103800F001F00A7C0889317D217C08983EF8008F
:10104800F9010E30F93D7808FA007908FB007A08B2
:1010580086007B0887007708810008002300D001FC
:1010680074302000E0000030E1000030E200003081
:10107800E3000030E400E5008931082188313D00B3
:101088008E101211101D4F28FB302000E600660854
:101098003D00900546282300D70108002200EC00F7
:1010A800671D5B28E0016C088931BF218831220067
:1010B800E71C6328E001E00A6C088931BF2122009F
:1010C8006C08983EE800E9010E30E93D6808EA003E
:1010D8006908EB006A0886006B08870067088100CA
:1010E80008003D00181C9728210064088600870125
:1010F80080300106031D952823002708860028084C
:10110800870084300106031D95280C30F00021006B
:1011180064088600870170088100640886008701DA
:1011280081173D001810DF30F000700890050800A6
:1011380000302300E3000030E2004B30E1000030D3
:10114800E000E401E5010830FD007D08E600D90172
:101158001A30FD007D08F7000130883112208831EF
:101168001E30FD007D08F7000230883112208831DA
:10117800F0012030F1000130F2004030FD007D0820
:10118800F30002308D31D92571082300C900700899
:10119800C800C601C701DA01080002302100630651
:1011A800031DD9288631F92608002100E301230010
:1011B8004E08031D052921006008013EF600003095
:1011C800613DF700760886007708870008308100BF
:1011D8005030F6000030F70060088600610887008C
:1011E80042317608C03F7708C13F60088600610831
:1011F80087000C308100600886006108870081172D
:1012080008002300CE0108001729013097314D2727
:101218000800023097314D27080088319C200800CB
:101228008B31B523080020006108003A03192029F2
:101238007F3A03193A293F296008013A031911290D
:10124800033A03193F29013A03191429063A0319E5
:101258003F29773A03193F29013A03193F29073AE9
:1012680003190D29013A031909293F296008FF3A92
:1012780003193F293F29080000302300E30000300C
:10128800E2004B30E1000030E000E401E501083005
:101298002200ED006D082300E600D9011A30220073
:1012A800ED006D08E70001308831522089311E3089
:1012B8002200ED006D08E7000230883152208931A4
:1012C8002200E0012030E1000130E2004030ED0072
:1012D8006D08E30002308E315C262200610823008D
:1012E800C900220060082300C800C601C701DA014E
:1012F8000800F5002030F1007108F6007008F100D0
:101308000130F135890B85297508F2000130F23575
:10131800FF3E031D8B2972357107F3000130F33549
:10132800FF3E031D93297335F4007408F607760809
:101338008600870181137008031DAC297535AD3E01
:101348008600013087007608C03F0030C13FB529CC
:101358007535A73E8600013087007608C03F00300B
:10136800C13F76088600870101137608043E86008F
:101378008701011708002200E5002030E10061081C
:10138800E6006008E1000130E135890BC8296508ED
:10139800E2000130E235FF3E031DCE2962356107C8
:1013A800E3000130E335FF3E031DD6296335E40031
:1013B8006408E60766088600870181136008031D34
:1013C800EF296535AD3E8600013087006608C03FCD
:1013D8000030C13FF8296535A73E860001308700F7
:1013E8006608C03F0030C13F6608860087010113C8
:1013F8006608043E86008701011708002300DF0104
:10140800D301D101D201CE012100E3017F302000B8
:10141800EE002300270886002808870020006E08B1
:101428008105043023002706A70000302806A800FD
:101438007F302000EE002300270886002808870058
:1014480020006E088105043023002706A70000301D
:101458002806A8007F302000EE00210060088600E2
:101468006108870020006E0881052300B501B601D8
:10147800B701A201A301A40187319A278A3100305C
:101488002000E1000330E0000030E2000030E3001B
:101498000030E400E500893108218A318F316E2758
:1014A80008002D302100E60066082300D600210040
:1014B8006508FD39031D9E2A65363F39E60001306F
:1014C800E635FF3E031D642A6635203EE7006708BF
:1014D800E4006408E000FF39031D0030E100043037
:1014E8006006E00000306106E100640886008701BC
:1014F800010C890C0F390D3A031D9B2A50308600C8
:10150800870121006408023E84008501003FE6004F
:10151800013FE70066088400670885000830E80096
:1015280012001E00E80B942A8A3102220800883132
:10153800D1200800FD3021006505E600043066066C
:10154800031D08008C317C2408002000D801D90133
:10155800E52A2300B51723004F03031DF12A2000B5
:10156800D814F12A2300B517F12A2300B517200053
:10157800D41BC92A54080F390907AD3E860001302B
:101588008700403FF100413FD32A54080F3909072B
:10159800A73E860001308700403FF100413FF2003E
:1015A8007108860072088700811FF12A7108860079
:1015B80072088700011DF12A0130F0007008D80078
:1015C800F12A50081F39003A0319AD2A013A0319C4
:1015D800B62A033A0319B92AF12A2300B51F0800CD
:1015E8005830B3000030B40035140230F0007008F1
:1015F800B60008002200EE002300D901480849047B
:1016080003190C2B4808860049088700811B572BB3
:101618004808860049088700413122006B0801020A
:101628000318212B23004808860049088700413108
:1016380001082200EC006C08EB002300D90122000D
:101648006B08230059020318422B5908203E8600D4
:101658000130870001082200EC002300590822000D
:101668006E07ED006D088600033087006C08810066
:101678000130EC006C082300D907232B2200E0017D
:101688002030E1000130E2004030EC006C08E3005B
:1016980002308E315C26220061082300C900220036
:1016A80060082300C800590808002300D101D201AE
:1016B800023021006306031D862B6008013EF300FB
:1016C8000030613DF4007308860074088700083014
:1016D80081005830F3000030F4006008860061088B
:1016E800870042317308C03F7408C13F6008860014
:1016F800610887004830810060088600610887001B
:10170800811708002300370820005702031D902B7B
:1017180023003608200056020318992B5708230087
:10172800B700200056082300B6008C311424583026
:10173800F3000030F40023002708860028088700FB
:1017480042317308C03F7408C13F27088600280843
:1017580087004830810027088600280887008117FD
:101768000800200050081F39013A031D0800500ED8
:10177800890C0339013A031D080054080319012C88
:101788005403031D0800012C2A302300B300023043
:10179800B4000030B7000830B6003514B51708009B
:1017A8002A302300B3000230B400B5170800200027
:1017B80057082300A400200056082300A300E030A7
:1017C800F0007008A000A501A601A2170800E030EB
:1017D8002300B3000130B4000030B7000730B60072
:1017E800C130F0007008B500080020005208F00071
:1017F80070082300DC00B517080020005108003AE3
:101808000319C82B013A0319D42B213A0319DB2BEE
:10181800013A0319EB2B033A0319F92B132C08008F
:101828000830F0007008F20000302300370208305A
:10183800031936020318302C3608F0007008F2003D
:101848005F08031D292C01302D2C5F03031D302C4C
:101858000230F0007008DF007208F000F101700833
:10186800B6027108B73B2708013EF0000030283D5A
:10187800F1007008860071088700720881005830EE
:10188800F0007008DE00351C5F2C782C33088400CB
:10189800340885000008F0005E088600870170089B
:1018A80081000130B3070030B43D0130F00070080A
:1018B800DE070130F2027208031908004A2C3308C7
:1018C8008400340885000008F0005E08860087015F
:1018D800700881000130B3070030B43D0130F000DA
:1018E8007008DE070130F202720803190800632C41
:1018F800230027088600280887000030011B0130D4
:10190800F50004302706A70000302806A800083094
:1019180021006206031D9F2C200052087F393D00DC
:101928009600160803199A2C10309B2C0430F300EB
:1019380073082100E2006303031DDF2C5830F30015
:101948000030F40023002708860028088700423169
:101958007308C03F7408C13F8C3114248C310230A5
:1019680023005F06031DC42C27088600280887006B
:10197800043081002708860028088700811708009E
:101988007508031DD32C27088600280887004830CF
:101998008100270886002808870081170800270883
:1019A8008600280887000830810027088600280854
:1019B8008700811708002300A21FE52C25082608A8
:1019C800A2132100E301080023005408031D0800A6
:1019D8000130F0007008D4005508031D08000130DC
:1019E800F0007008D500023021006306031D0F2D9A
:1019F800230027088600280887004131810127082D
:101A080086002808870048308100270886002808B3
:101A180087008117080021006303031D08002300C5
:101A2800CE010830F0002100640A860087017008A2
:101A380081005030F0000030F1006408023E86005A
:101A480087017008C03F7108C13F0430F000640886
:101A58008600870170088100640886008701811765
:101A68000130F00070082300CE0021006008013E1C
:101A7800F0000030613DF1007008860071088700B1
:101A8800083081005030F0000030F1006008860016
:101A98006108870042317008C03F7108C13F600883
:101AA80086006108870080308100080080302000AF
:101AB8005006031D0800C030F00070082300B50070
:101AC800CC2D7F302300B3008530B4000030B70040
:101AD8001230B600080020005208031DA22D52083B
:101AE800F000F101F035F10DD23070078400843038
:101AF800713D8500003F2300B300013FB400340866
:101B0800F1003308F00002307007840071080318F0
:101B1800710A85000008F2007208B6003408F10066
:101B28003308F00003307007840071080318710A45
:101B380085000008F2007208B70008002300B5010C
:101B480008000330200052020318C62D5208F00086
:101B5800F101F035F10DCC30700784008430713D0F
:101B68008500003F2300B300013FB4003308840020
:101B7800340885000008F000F1017008B60071080B
:101B8800B70008002300B50108002300B5010800CC
:101B980020005308013A0319652D033A03196F2DE4
:101BA800013A0319A52DC92D0800F800700803197A
:101BB800E62D7835A73E860001308700403FF900C2
:101BC800413FEE2D7835AD3E860001308700403F1D
:101BD800F900413FFA0079087A04031DF62DF00157
:101BE800F1010800FF307105F4007F307205F5003F
:101BF800790886007A08870042317408C03F750862
:101C0800C13F7908013EF40000307A3DF5007408C0
:101C1800860075088700730881004030F400790851
:101C280086007A08870074088105790886007A0892
:101C380087008115790886007A088700811770085F
:101C480003193F2E7835A73E860001308700403FB4
:101C5800F400413FF50004307406F60000307506C4
:101C6800F7007835A73E8600013087007608C03F28
:101C78007708C13F572E7835AD3E86000130870082
:101C8800403FF400413FF50004307406F600003090
:101C98007506F7007835AD3E860001308700760876
:101CA800C03F7708C13F7A08F1007908F0000800C2
:101CB8002200E800600803196A2E6835A73E8600EE
:101CC80001308700403FE900413F722E6835AD3E44
:101CD800860001308700403FE900413FEA0069087B
:101CE8006A04031D7A2EE001E1010800FF30610556
:101CF800E4007F306205E500690886006A0887000D
:101D080042316408C03F6508C13F6908013EE400EC
:101D180000306A3DE50064088600650887006308AE
:101D280081004030E400690886006A08870064087A
:101D38008105690886006A08870081156908860098
:101D48006A088700811760080319C32E6835A73E03
:101D5800860001308700403FE400413FE500043041
:101D68006406E60000306506E7006835A73E860091
:101D7800013087006608C03F6708C13FDB2E683521
:101D8800AD3E860001308700403FE400413FE5005A
:101D980004306406E60000306506E7006835AD3EAD
:101DA8008600013087006608C03F6708C13F6A089F
:101DB800E1006908E00008002300B5170E30200094
:101DC800E8009930E700E901023069020318FD2EA6
:101DD800670886006808870081010130E70700303E
:101DE800E83D0130E6006608E90702306902031C95
:101DF800EC2E2030F0000030F1000030F200F3004B
:101E08003030F4000030F500973179278E313D00ED
:101E18000E172000EA0103306A020318272F6A0808
:101E2800C03E86000130870081016A08C33E8600F3
:101E38000130870081010130E6006608EA070330B7
:101E48006A02031C132FE730F0000130F100003064
:101E5800F200F3000230F4000030F50097317927E2
:101E68008E313D000E1328302300A7000030A80053
:101E780020302000E60066082100E4006408E00045
:101E8800FF39031D0030E10020005208E600660813
:101E98002300E9006908031D582F10302000E600D0
:101EA80066082100E200080000302000E10001304F
:101EB800E000E930E2000130E3000130E4000030E6
:101EC800E5008931082120302000E600660821005D
:101ED800E20008003D000E122300B51BB62FA21F1A
:101EE800842F0230F50075082100E3002300520812
:101EF800031D802F8B3159232300D501D4010800FD
:101F080021006008013EF5000030613DF6007508CB
:101F1800860076088700083081005030F5000030D0
:101F2800F600600886006108870042317508C03FE6
:101F38007608C13F60088600610887000C30810080
:101F4800600886006108870081172300270886003B
:101F580028088700043081002708860028088700A1
:101F6800811708002000D01FCE2F0130F50075081A
:101F78002100E30023005108031DC52F8B3159238D
:101F88008F312300D501D4015308031D08008C317B
:101F9800E82408000230F50075082100E300600815
:101FA800013EF5000030613DF600750886007608B0
:101FB8008700083081005030F5000030F6006008D6
:101FC80086006108870042317508C03F7608C13F26
:101FD8006008860061088700043081006008860078
:101FE8006108870081172300D501D4015308031D18
:101FF80008008C31E82408008731BF2F8731C22FB1
:102008008731FB2F8731C22F8731FB2F8731A22FD2
:102018008731AB2F8731E22F8731B12F8731AE2F30
:0C2028008731C52F8731D52F8731FB2F62
:102E9A00F000562FFC3021009900903027009B004B
:102EAA0008007008003A03194F2F013A0319612FDD
:102EBA00033A0319612F612F08002200E0006C2FEA
:102ECA00FC3021009900903027009B000800220066
:102EDA006008003A0319652F013A0319782F033A5B
:102EEA000319782F782F08007108F7007008F60088
:102EFA000130F4020030F53B740A0319750A03190C
:102F0A000800760886007708870072088100013079
:102F1A00F6070030F73D7D2F01302300BC07003053
:102F2A00BD3D0030BE3D0030BF3D5008031D0800C6
:102F3A000130F0007008D7075708031D0800FF305A
:102F4A00F0007008D70008002200E20021001211E8
:102F5A0023005A08031DC12F22006208E1006108FC
:102F6A002300CC0022006008E10061082300DB0096
:102F7A00D801D80ADA01DA0A21001215080021005C
:102F8A006208031D08003D008E019201163091006F
:102F9A009F3097007B309200210012150B178B1778
:102FAA003D008E19DA2F8E15D52F01302200E00050
:102FBA0060082100E20008003D001215EF302000F1
:102FCA00E60066083D0090058E1401302000E600F8
:102FDA0066082300D000D70175302000E0000030D9
:102FEA00E1000030E2000030E3000030E400E500D8
:062FFA00893108210800E6
:020000040001F9
:04000E00E4C1CFFF7B
:00000001FF
